:100000000C9480010C949D010C94B8010C949D01FA
:100010000C949D010C949D010C949D010C949D01E8
:100020000C949D010C949D010C9482160C949D01DE
:100030000C949D010C949D010C949D010C949D01C8
:100040000C949D010C949D010C949D010C949D01B8
:100050000C949D01290000003A003B003C003D004B
:100060003E003F00400041000000420043004400C9
:10007000450046004700480035001E001F002000D4
:1000800021002200230024002500260027002D0047
:100090002E002A00000049004A004B002B001400EB
:1000A0001A000800150017001C0018000C001200B0
:1000B00013002F003000310000004C004D004E00B6
:1000C000390004001600070009000A000B000D00AB
:1000D0000E000F0033003400000028000000000074
:1000E00000000000E1001D001B00060019000500D3
:1000F0001100100036003700380000000000E50055
:100100000000000052000000E000E300E2000000F8
:10011000000000002C0000000000E600E7000000E6
:1001200001510000E400500051004F0001000000A8
:1001300001000100010001000100010001000100B7
:1001400000000100010001000100010001000100A8
:100150000100010001000100010001000100010097
:100160000100010001000100010001000000010088
:10017000010001000100010001000100005C01001C
:100180000100010001000100010001000100010067
:100190000000010001000100010001000100010058
:1001A0000100010001000100010001000100010047
:1001B000000001000000000000000000010001003C
:1001C0000100010001000100010001000100010027
:1001D000010000000000010000000000A900000074
:1001E000010001000100000000000000010000000B
:1001F00000000100010000000100000001000100FA
:10020000AA00010009023B00020100A0FA09040053
:100210000001030101000921010100012240000742
:100220000581030800010904010001030000000921
:100230002101010001223200070583030800011299
:1002400001100100000008626B69870100010200D3
:100250000114034D00590053005400450052004959
:100260000055004D000000200363006F007300651F
:10027000007900660061006E006E00690074007510
:1002800000740074006900000004030904050109FA
:1002900080A101850319012AB700150126B7009531
:1002A0000175108100C0050C0901A1018504190127
:1002B0002AA002150126A002950175108100C00533
:1002C000010906A101050719E029E7150025019597
:1002D0000875018102950175088103050719002938
:1002E000FF150026FF009506750881000508190115
:1002F0002905950575019102950175039103C000CB
:1003000011241FBECFE5D8E0DEBFCDBF10E0A0E6D0
:10031000B0E0EAEFF4E302C005900D92A43EB1070D
:10032000D9F722E0A4EEB0E001C01D92A63CB207CE
:10033000E1F70E947B130C94601A0C940000A82F24
:10034000B92F80E090E041E050EA609530E009C0CC
:100350002D9182279795879510F084279527305EF9
:10036000C8F36F5FA8F30895EADF8D939D93089516
:10037000CF93CFB7CF93DF93C395839BE9F7839B4D
:1003800010C0839B0EC0839B0CC0839B0AC0839BC1
:1003900008C0839B06C0C0919D02C395C0939D0277
:1003A0008EC06F93C0919C02DD27CC55DD4F2F93FB
:1003B00065E5839B03C02F916F91E1CF0F931F934E
:1003C0004F9320E040E15F9300B30C7003FB27F9EB
:1003D0003F9350E03BE039C01C7040642F77012F01
:1003E0005F5F1EC0406810B31C702F7752501FC053
:1003F000406400B32F770C70D1F15F5F00C023C061
:10040000406210B32F771C7091F15F5F00C025C070
:100410000C701027515012F45D5F000011502795A9
:100420002C3F10B3C8F61C700127015027952C3FB4
:10043000C8F64227499300B30C7010274F73115030
:1004400027952C3FA8F64695469510B31C7079F079
:100450000127015027952C3F98F66B5A60F33150D5
:1004600000B3B0F600C010E81ABF00271CC03B5014
:100470003195C31BD04010E81ABF0881033C21F11D
:100480000B3411F1209199021981110F1213EDCF44
:100490004A81441F093679F10D3211F0013E29F7E6
:1004A0004F7009F0042F0093A2023F915F914F918A
:1004B0001F910F912F916F91CAB7C7FD5DCFDF914B
:1004C000CF91CFBFCF9118952091A202222369F33B
:1004D0001091A002112309F049C034300AF448C039
:1004E0003093A00220939B0210919C023BE0311BB1
:1004F00030939C023DC00091A0020130BCF50AE59A
:100500004F7049F430916F0034FD33C000936F0099
:10051000C6E7D2E032C0433059F0443091F0309118
:10052000810234FD26C000938102C2E8D2E025C0DA
:100530003091BA0234FD1DC00093BA02CBEBD2E079
:100540001CC030918D0234FD14C000938D02CEE8A2
:10055000D2E013C0052710E000C0000002BB1AC0A3
:10056000052710E0221F1DC010E021C04AE502C08F
:1005700032ED432FC4E1D0E032E011B31C60939A16
:1005800002B311BB5CE020E865E320FF052702BB56
:10059000279517951C3FF0F66695B8F7B1F720FF41
:1005A000052702BB279517951C3FD0F62795179571
:1005B00017FF052700001C3F02BBB0F629913A95B2
:1005C00019F7037F1091A102110FC651D04002BB51
:1005D00011F01093990210E81ABF086011B3137F4D
:1005E000402F437F54E05A95F1F702BB11BB42BB49
:1005F0005CCF81E0089581E008950E94FB02089598
:1006000008950E9400030895A5E0B0E0EAE0F3E059
:100610000C94EA1949835A833091E70089819A81C1
:10062000311119C0662399F0222389F00E94250A0E
:10063000182F682F89819A810E94010A69817A8125
:10064000812F0E94B5102596E3E00C94061A0E94B3
:10065000130A182FF3CF0E94250A69817A81F1CFFE
:10066000FC01262F408151816281738184810E9427
:100670000403089581E00895CF93DF93D82FC92F05
:1006800060E00E9430036D2F7C2F0E940103DF91F8
:10069000CF9108950E94011208950E9405120895B5
:1006A00008950E94DC070E9450032FEF84E39CE032
:1006B000215080409040E1F700C0000008950E9462
:1006C00051030E94A61608950E9451030E94B91674
:1006D00008950F931F93CF93DF938C0161E00E94E5
:1006E0003003EC01B8010E94FD028823A9F1B80192
:1006F000CE010E940D15882379F1B801CE010E9428
:100700008813882349F1B801CE010E94731488230D
:1007100019F1F8018281882381F0CC35FDE5DF07EE
:1007200051F178F4CF3DECE5DE07E1F0CB35FDE5A6
:10073000DF07F1F0C115DC4569F0C8010E94F9023C
:100740000CC0CD35DC0789F0C83ADD45B1F70E9411
:10075000640302C00E945F0380E0DF91CF911F918C
:100760000F9108950E94E20EF2CF0E941C0EE5CF79
:100770000E94260EE2CF0E942A0EDFCF0E940916A9
:100780000E94DB0308950E94DF030E940E16089565
:1007900008950E94C803089581E008950E94CC0343
:1007A00008950895CF93C82F0E94C9038C2F0E94EB
:1007B000CE03CF91089580E00E94D20308950E9455
:1007C0006A150E94D20308950E946A159091E6006E
:1007D000981721F08093E6000E94D2030895ABE0C1
:1007E000B0E0E5EFF3E00C94E719142F4F83052FE9
:1007F000588769877A878B87EA84FB8461110E9416
:100800007B0D1E8285E0FE013796DE011196019078
:100810000D928A95E1F7E114F10461F449815A815E
:100820006B817C818D819E810E94A10C2B96E6E0DC
:100830000C94031A10231F3F89F3CE0101960E94E6
:100840003A038111EBCFF2CFFC01808191810E94AC
:100850005F0A0895CF93C82F8823C9F08238C9F45E
:100860000E946A1581FD13C089E30E94300D0E9429
:100870009C0D2FEF31EE84E0215030408040E1F7B5
:1008800000C0000089E30E94380D0E949C0DCF91AA
:1008900008958338A1F40E946A1580FDF8CF83E59E
:1008A0000E94300D0E949C0D9FEF21EE34E091508C
:1008B00020403040E1F700C0000083E5E4CF8438F9
:1008C000A1F40E946A1582FDE2CF87E40E94300DF8
:1008D0000E949C0D8FEF91EE24E0815090402040CB
:1008E000E1F700C0000087E4CECF8CEF8C0F813A97
:1008F00090F46C2F80916000909161000E94BF1570
:10090000882329F08C2F0E94380D0E949C0D8C2F7B
:100910000E94300DBACF80E28C0F883048F4C77047
:1009200081E001C0880FCA95EAF70E945C0DADCF47
:100930008BE58C0F833038F42C2F2452330BC901F4
:100940000E948215A4CFC85AC73108F0A0CFEC2F5F
:10095000F0E0EE0FFF1FE059FF4F808191810E9470
:10096000981595CF882309F44DC0823879F40E94F8
:100970006A1581FF47C089E30E94300D0E949C0DDB
:1009800089E30E94380D0E949C0D0895833859F424
:100990000E946A1580FF36C083E50E94300D0E94D8
:1009A0009C0D83E5EECF843859F40E946A1582FFCE
:1009B00029C087E40E94300D0E949C0D87E4E1CF9E
:1009C0009CEF980F913AE8F290E2980F983050F42B
:1009D000877091E001C0990F8A95EAF7892F0E94EC
:1009E000620DD1CF9BE5980F933028F480E090E022
:1009F0000E9482150895885A873120F480E090E0A3
:100A00000E94981508951F93CF93DF93182FEB0141
:100A10000E942A04209739F4812F0E94B204DF91AA
:100A2000CF911F9108958FE99FE00197F1F700C0E2
:100A300000002197EFCF60E070E0893311F460E5AA
:100A400070E00E9403050895882321F00E945C0D48
:100A50000E949C0D0895882321F00E94620D0E943F
:100A60009C0D0895A5E0B0E0E8E3F5E00C94E519ED
:100A70006C016D837983FC010281F580F2948FE033
:100A8000F8220E94510DE82E8823B9F0E02E0023B1
:100A9000A1F08981807F803421F08D81805E883053
:100AA000A0F18091410282FF30C082E00E94E90DF6
:100AB0000E94510D91E0E82EE926998192959F7050
:100AC000983009F4F6C0E8F5943008F519811F70E4
:100AD000923008F448C02981207F203211F012950D
:100AE000107F3D81332309F470C0313009F4A5C073
:100AF000002309F4AFC0FF2009F4A5C0F6018581E9
:100B000080FF46C08F7085839EC0E12CD6CF943085
:100B100009F4B2C0EE2089F00E944D0D80FD0DC099
:100B2000F60112820E94470D0E94C908C6010E9468
:100B3000A1070E94470D0E94F0082596E8E00C945A
:100B4000011A993009F465C19A5F9F70923010F7CD
:100B50001D81123F09F070C189818F71011169C136
:100B60000E94C908F0C02981203110F01295107F31
:100B70000023A1F0112361F08D81805E883018F090
:100B80000D81011107C0812F0E945C0D0E949C0DF8
:100B90008D8129C0812F0E946D0DF8CF8D810E941B
:100BA000B204112309F4B6CF8D81805E883018F02D
:100BB0000D81011104C0812F0E94620D03C0812F9D
:100BC0000E94730D0E949C0DA5CF8091410282FD71
:100BD00014C0002359F0112329F0812F0E945C0DCD
:100BE0000E949C0D80E00E942A0494CF80E00E9425
:100BF000B204112309F48ECFDECF002389F0F11067
:100C000006C00E947E0D812B0E94240583CF81E0C7
:100C1000F812F7CF0E947E0D812B0E94850D7ACFAE
:100C2000F11006C00E94920D812F0E942B0572CFF9
:100C300091E0F91609F46ECFF5CF002331F0E5E02D
:100C4000EF1508F467CF812FDFCFF4E0FF1508F42C
:100C500061CFEACFFF2041F30D81093349F41FEF43
:100C600027EE33E0115020403040E1F700C0000093
:100C70008D810E94B2044ECF8981869586958370BE
:100C8000882369F0813009F045CF8D819981937077
:100C9000011102C080E090E00E9498153BCF8D8149
:100CA00099819370011102C080E090E00E9482154A
:100CB00031CF89818370811154C0011144C02D81CD
:100CC000229526952770220F220F4D814F7050E0FC
:100CD00060E070E0022E04C0440F551F661F771FAE
:100CE0000A94D2F70D8180E090E0DC0104FF0FC090
:100CF0008FE090E0A0E0B0E004C0880F991FAA1F29
:100D0000BB1F2A95D2F780959095A095B095198133
:100D10001695169513701D838C019D01042B152BC0
:100D2000262B372B09831A832B833C831D816981F2
:100D30007A818B819C81123071F0133079F01130FF
:100D400039F00E9451080E946A150E94D203E2CE37
:100D50000E942F08F8CF0E947308F5CF0E942C083C
:100D6000F2CF002309F448C0098100FFECCF2D81A8
:100D7000229526952770220F220F4D814F7050E04B
:100D800060E070E0022E04C0440F551F661F771FFD
:100D90000A94D2F71D8180E090E0DC0114FF0FC0BF
:100DA0008FE090E0A0E0B0E004C0880F991FAA1F78
:100DB000BB1F2A95D2F780959095A095B095098193
:100DC0000695069503700D838C019D01042B152B50
:100DD000262B372B09831A832B833C831D81698142
:100DE0007A818B819C81123071F0133079F011304F
:100DF00039F00E946409A7CF823008F4A4CFB7CF9E
:100E00000E944209A0CF0E9486099DCF0E949B08A4
:100E10009ACF19811F701983002339F0812F0E9406
:100E2000C9088D810E9424058ECF8D810E942B05DB
:100E300089810E94F00887CF1D81133F70F4103F15
:100E4000C1F0113F91F1002309F450C0FF2009F4D3
:100E50004AC08D810E942A0476CF1D81133FB9F0CC
:100E6000143FF9F00111F2CFF1104FC089818F7159
:100E7000E0CF002349F024E02F1508F464CF8981E6
:100E80008F710E941B095FCF35E0F316F6CF002368
:100E900029F089818F710E94AE0855CF0E94A80861
:100EA00052CF8091410282FD06C089818F7100235B
:100EB00009F4BFCF55CE002359F009810F71098382
:100EC000802F0E94C90863E089810E94CB0D3BCF2F
:100ED00081E00E94E90D11E01F1508F034CF82E097
:100EE0000E94E90D30CF89818F713ACEFF2009F43D
:100EF000BDCF0D81093349F41FEF27EE33E01150C8
:100F000020403040E1F700C000008D810E94B20413
:100F10001ACF0F931F93CF93DF93EC0168817981F0
:100F20008A810E946C0A8C010E94A8090E942B08E9
:100F3000B801CE010E943205DF91CF911F910F9130
:100F40000895CF93DF93EC01988189812B813C81B7
:100F5000232BB1F089238F3F99F0CE010E946903C2
:100F6000811111C00E94510D882351F08A8188237C
:100F700039F08091410282FF03C082E00E94E90DB6
:100F8000DF91CF910895CE010E948907CE010E9482
:100F90003C03F6CF80E090E00E94821580E090E074
:100FA0000E9498150E947B0D0E949C0D08950E943E
:100FB000400D0E94CA0708950E946A0D0E94D7073B
:100FC0000895282F92959F70963091F060F4925F6B
:100FD0009F70923030F481E0203F79F030F4283E69
:100FE00030F080E008959A5FF3CF243FD1F7089561
:100FF00081E0283EE0F3213FF9CF0895FC01808194
:1010000091810E945F0A0E94E1070895A5E0B0E087
:10101000ECE0F8E00C94EB192596E2E00C94071A4A
:10102000A6E0B0E0E6E1F8E00C94EB192696E2E0E9
:101030000C94071A08950E941A0808950E941B082C
:1010400060933201709333018093340190933501A2
:101050000E94CA07089508950E941E080895A4E0FA
:10106000B0E0E5E3F8E00C94EB1969837A838B83B5
:101070009C838091320190913301A0913401B09111
:10108000350129813A814B815C81282B392B4A2BF0
:101090005B2BCA01B9010E941E082496E2E00C9461
:1010A000071AA4E0B0E0E7E5F8E00C94EB196983D7
:1010B0007A838B839C838091320190913301A0913C
:1010C0003401B091350129813A814B815C8128231B
:1010D00039234A235B23CA01B9010E941E082496C2
:1010E000E2E00C94071AA4E0B0E0E9E7F8E00C9421
:1010F000EB1969837A838B839C8380913201909171
:101100003301A0913401B091350129813A814B819D
:101110005C81282739274A275B27CA01B9010E9429
:101120001E082496E2E00C94071A0E941A080895FB
:101130000E94950808950E94980860932E0170936C
:101140002F0180933001909331010E94CA070895C6
:1011500060E070E0CB010E949B080895A4E0B0E03D
:10116000E4EBF8E00C94E91941E050E060E070E055
:101170008A019B0104C0000F111F221F331F8A9593
:10118000D2F7C901B8010E949B082496E4E00C94B0
:10119000051AA4E0B0E0EFECF8E00C94E91941E0A6
:1011A00050E060E070E004C0440F551F661F771FD9
:1011B0008A95D2F780912E0190912F01A091300154
:1011C000B09131018A019B01082B192B2A2B3B2B53
:1011D000C901B8010E949B082496E4E00C94051A0A
:1011E000A4E0B0E0E6EFF8E00C94E91941E050E04B
:1011F00060E070E004C0440F551F661F771F8A959A
:10120000D2F7409550956095709580912E01909100
:101210002F01A0913001B09131018A019B01082377
:1012200019232A233B23C901B8010E949B08249655
:10123000E4E00C94051AA4E0B0E0E1E2F9E00C94DB
:10124000E91941E050E060E070E004C0440F551F30
:10125000661F771F8A95D2F780912E0190912F01FA
:10126000A0913001B09131018A019B010827192713
:101270002A273B27C901B8010E949B082496E4E075
:101280000C94051AA4E0B0E0E8E4F9E00C94EB1942
:1012900069837A838B839C8380912E0190912F01A7
:1012A000A0913001B091310129813A814B815C815B
:1012B000282B392B4A2B5B2BCA01B9010E949B08B2
:1012C0002496E2E00C94071AA4E0B0E0EAE6F9E024
:1012D0000C94EB1969837A838B839C8380912E0114
:1012E00090912F01A0913001B091310129813A8173
:1012F0004B815C81282339234A235B23CA01B9012E
:101300000E949B082496E2E00C94071AA4E0B0E047
:10131000ECE8F9E00C94EB1969837A838B839C8366
:1013200080912E0190912F01A0913001B091310157
:1013300029813A814B815C81282739274A275B27FD
:10134000CA01B9010E949B082496E2E00C94071A96
:1013500008959B01677091E001C0990F6A95EAF7C3
:1013600063E0369527956A95E1F7E5E0E29FB001E5
:10137000E39F700D1124FA01E60FF71F40E050E0E3
:10138000682F70E08191DF0111979B01042E02C04C
:10139000369527950A94E2F721702195282729236D
:1013A00028272C934F5F5F4F4530510559F708951B
:1013B0009C01982F977083E0369527958A95E1F7E1
:1013C00085E0829FF001839FF00D1124E60FF71F47
:1013D00040E050E080E0219130E0092E02C03695D7
:1013E00027950A94E2F721703327042E01C0220FBB
:1013F0000A94EAF7822B4F5F5F4F4530510559F74A
:101400000895282F862F963068F4223158F4622FE1
:1014100070E022E1929F600D711D112448EE50E0B2
:101420000E94A9090895292F963068F4823158F452
:1014300090E068EE70E032E1239F800D911D112451
:101440000E94D809089580E00895A0E0B0E0EBE2A2
:10145000FAE00C94E4198C01C0902E01D0902F0179
:10146000E0903001F0903101809132019091330190
:10147000A0913401B0913501C82AD92AEA2AFB2A61
:10148000CFE1D0E0D701C6010C2E04C0B695A795D8
:10149000979587950A94D2F780FD09C0219790F718
:1014A000B12C8B2DCDB7DEB7E9E00C94001ABC2E21
:1014B000B8018C2F0E94CF10019781F3F2CFCF9308
:1014C000DF93D82FC92F0E94250A6D2F7C2F0E94F1
:1014D000CF10DF91CF9108951F93CF93DF93162FF5
:1014E000D72F9091E700992341F0862F972F0E94E4
:1014F0005F0ADF91CF911F910895882381F0862F95
:10150000972F0E94250AC82F682F812F9D2F0E9498
:10151000010A612F7D2F8C2F0E94CF10EACF862FDA
:10152000972F0E94130AC82FF4CF0F931F93CF93C6
:10153000E0913601C6E0809137018E1304C0CF914F
:101540001F910F9108950E2F10E0CE9FF0011124EE
:10155000E85CFE4F40815181628173818481958175
:101560000E941008F8013196E770E5CF40916801BC
:101570005091690160916A0170916B0180916C01D9
:1015800090916D010E94100808951F93CF93DF93EF
:1015900080916D01803108F04CC080916A018823F0
:1015A00009F447C0809136012091370160916801AC
:1015B00030916901C0916B01D0916C01732F76233A
:1015C0002817B9F190E0209709F443C016E07F3F57
:1015D00009F43FC0189FF001199FF00D1124DF019D
:1015E000A85CBE4F11964C91119734132CC04C91AE
:1015F000461329C012964C91129741111EC01396A2
:101600004D915C914C1B5D0B483C5105E0F4809181
:101610006D018F70806180936D01E35CFE4F80816E
:101620008F708061808388E691E00E94A1070E940C
:10163000950ADF91CF911F910895019687709927A0
:101640002813C8CFF6CF0196877099272813BFCFEC
:10165000F0CF01968770B4CF8F929F92AF92BF92D6
:10166000DF92EF92FF920F931F93CF93DF93CDB74B
:10167000DEB72B970FB6F894DEBF0FBECDBF8C013F
:1016800085E0F801DE01179601900D928A95E1F749
:10169000F801F280A380B48088E6882E81E0982E3D
:1016A000909168012091690140916B0150916C010A
:1016B0004115510509F431C1822F89238F3F09F467
:1016C0002CC1D0906A01B501641B750BDD2009F4B3
:1016D000E8C080916D01683C710508F0BBC03181A4
:1016E000803108F079C0EF2C321314C02081291307
:1016F00011C0F1101EC08F70806180936D010E9437
:10170000B60AC4010E94A10780916D01F80185838A
:10171000E12C4FC09F818885AB2889F0282F292391
:101720002F3F69F0E09136012091370136E0FF202C
:10173000E1F080916D01816080936D01E9CFFF2020
:1017400039F3F7CF4E2F50E03E9FF0011124E85CB3
:10175000FE4F6181861306C06081691303C06281F8
:101760006111D6CFFA013196E770E213EBCF8F818A
:1017700098850E945F0A292F22952F70903248F495
:101780009F70992311F08823A1F0805E883088F043
:1017900004C0225F2F70223028F0C8010E94A107E8
:1017A000ED2C07C09F70992381F3F801958190314A
:1017B00060F78E2D2B960FB6F894DEBF0FBECDBF0F
:1017C000DF91CF911F910F91FF90EF90DF90BF902D
:1017D000AF909F908F900895321312C020812913EB
:1017E0000FC0F1100DC08583C8010E94A10786E0DB
:1017F000F801A8E6B1E001900D928A95E1F725C0C5
:10180000C8010E94FE07882309F47BC0FF2009F469
:1018100078C080916D01803270F020916801309124
:1018200069013A8329831B82BD82AC828E83CE01FB
:1018300001960E94A10786E0F801A8E6B1E00190B8
:101840000D928A95E1F70E94C50A0E94B60AEE241D
:10185000E394AFCF803198F44F81588569857A85BC
:101860008B850E94060888E691E00E94A10786E029
:10187000F40111928A95E9F70E94B60A49CF3181A5
:101880002313BECF20812913BBCFF110B9CF85839D
:10189000C8010E94A10786E0F40111928A95E9F738
:1018A000D6CF683C710588F5FF2059F18181281356
:1018B0001EC0808189131BC080916D0180FD0EC008
:1018C000803160F08583807F803F09F48DCF8581F2
:1018D000982F907F905F8F70892B85CF86E0F801DD
:1018E000A8E6B1E001900D928A95E1F7B0CFC8016A
:1018F0000E94FE0781119FCF80916D0181608093CE
:101900006D01C8010E94A107A2CF4F81588569854A
:101910007A858B850E940608AACFFF2091F3C80123
:101920000E94FE07882369F386E0F801A8E6B1E08B
:1019300001900D928A95E1F788E691E00E942404D7
:1019400082CFACE0B0E0E7EAFCE00C94EA194F8308
:10195000588769877A878B879C87CE0107960E9474
:101960002C0B8823D9F08A859B85892B61F05885BB
:101970004F81852F84238F3F31F069857A858B8550
:101980009C850E94100816E08091360190913701E5
:10199000891344C02C96E3E00C94061A86E0FE01FD
:1019A0003796DE01119601900D928A95E1F78F81AD
:1019B000988520913701409136016A857B85672B98
:1019C00011F389238F3FF9F230E0C9010196877046
:1019D000992750E08417950771F40E94DC07109254
:1019E00037011092360186E0E8E6F1E0DF011D9252
:1019F0008A95E9F7C8CF96E0929FD001939FB00DEA
:101A00001124A85CBE4FFE01319601900D929A956B
:101A1000E1F7809337010E94950AB5CF189FC00166
:101A20001124885C9E4F0E942C0B882309F4B2CFAE
:101A3000E09136011E9FF0011124E85CFE4F4081C9
:101A4000518162817381848195810E941008809107
:101A5000360190E00196877099278093360194CFE4
:101A6000682F80916000909161000E94F91508959F
:101A7000682F80916000909161000E94FC1508958C
:101A800080916000909161000E94FF1508958091FF
:101A90006E01859585958595089580916E01877075
:101AA000089590916E01977081E0911101C080E0DE
:101AB000089580917901089590917901982B9093E0
:101AC00079010895982F90958091790189238093C9
:101AD0007901089510927901089590917801982BD9
:101AE000909378010895982F90958091780189239B
:101AF00080937801089510927801089580916F0184
:101B0000089508950E94810D08959091410292FFD9
:101B100008C090916F01981721F080936F010E9487
:101B2000820D089580916F01882329F010926F0132
:101B300080E00E94820D0895E0916000F0916100C4
:101B4000809179018083E0916000F0916100808153
:101B500090917801892B808390916F01992381F076
:101B6000E0916000F09161008081892B80838091F9
:101B70006000909161000E94AE1581110E94920D4B
:101B800080916000909161000E94771508950895FA
:101B90000E94C70D08959091410292FF11C098E0F4
:101BA000899F90011124622B60936E010E94C908E5
:101BB00080916E018595859585950E94C80D089543
:101BC0000E94C908089510926E0180E00E94C80D1D
:101BD000089520916E018095822380936E01982F45
:101BE0009770911113C030E0482F082E000C550B50
:101BF0002417350759F09091410292FF07C085954F
:101C0000859585950E94F0080E94E30D08959091B6
:101C1000410292FB222720F9281769F080FB92F9F4
:101C20009093410280914002909141020E94580E8F
:101C300082E00E94E90D08958091410282FB88278D
:101C400080F991E089270E94070E089581E00E94A3
:101C5000070E089580E00E94070E08956FEF7FEF52
:101C600080E090E00E944A1A089580E090E00E948F
:101C7000271A9C0181E0283E3E4F09F080E008953C
:101C800082E090E00E941F1A089583E090E00E9495
:101C90001F1A0895CF9384E090E00E941F1AC82F66
:101CA00082E290E00E941F1A982F8C2FCF91089506
:101CB000CF93682FC92F84E090E00E942D1A6C2FDB
:101CC00082E290E00E942D1ACF910895AB01BC01F1
:101CD0008FE090E00E943E1A0895AB01BC0183E1C1
:101CE00090E00E943E1A089560E070E0CB010E94EF
:101CF0006D0E089560E070E0CB010E94660E0E94B8
:101D0000740E089568EE7EEF80E090E00E944A1A1B
:101D100060E082E090E00E942D1A60E083E090E0B5
:101D20000E942D1A10923201109233011092340148
:101D30001092350160E084E090E00E942D1A64E08A
:101D400082E290E00E942D1A60E085E090E00E941F
:101D50002D1A60E086E090E00E942D1A6FEF87E078
:101D600090E00E942D1A40E050E0BA0188E090E037
:101D70000E943E1A60E08DE090E00E942D1A40E043
:101D800050E0BA0188E190E00E943E1A60E087E1ED
:101D900090E00E942D1A40E050E0BA018CE190E002
:101DA0000E943E1A60E070E080E290E00E944A1AD1
:101DB00040E050E0BA0188E190E00E943E1A0E94A3
:101DC0007A0E08950E94820E0895682F8EE090E0AA
:101DD0000E942D1A08950E945616609396017093E2
:101DE0009701809398019093990160939201709369
:101DF0009301809394019093950108950895089517
:101E00000E94FF0E089508950E94030F089582EB2B
:101E100091E10E9460150E94FE0E0E94000F08953D
:101E200081E008950E94100F0895089508950E947A
:101E3000150F0E94160F08950E94CE110E94D10323
:101E400008950E9443160E94E4120E941C0F0E94F3
:101E5000040F0895A5E0B0E0E0E3FFE00C94DC1986
:101E60000E94FA12982E81110E94EB0E5AE7A52EBD
:101E700051E0B52E00E010E0302E802F0E940812B5
:101E80006B017C01F50141905190619071905F016F
:101E90004C145D046E047F04B1F40F5F1F4F0630D5
:101EA000110551F78FEF89838A831B820E944A169E
:101EB0008160782F9D838C8349815A816B81892F22
:101EC0000E94EF035FC080919A0181FD0E941E1263
:101ED000D301C2018C259D25AE25BF252C013D01D6
:101EE000F1E04F22552466247724812C41145104BB
:101EF00061047104B1F4412C512C32014394839458
:101F0000440C551C661C771C22E1821631F2AC0190
:101F1000BD014421552166217721452B462B472BB6
:101F200071F30E94120F8823D1F089823A82C42073
:101F3000D520E620F72081E0C114D104E104F104AA
:101F400009F480E08B830E944A168160782F9D837C
:101F50008C8349815A816B81892F0E94EF03000F86
:101F6000111F000F111FF801E658FE4F808191816B
:101F7000A281B38184259525A625B72580839183E9
:101F8000A283B38381E0911001C080E02596E1E156
:101F90000C94F8190E942A0F0E94E4030895CF932D
:101FA000DF930E94D410EC01811522E5920708F01E
:101FB00054C0811531E5930708F0ACC08F3B910503
:101FC00008F1811540E59407A0F19C01F4E03695F5
:101FD0002795FA95E1F7237086958695837050E2F0
:101FE000859FC0011124922BC37021E030E0A9012C
:101FF00002C0440F551FCA95E2F7EA01C82BD92B3E
:10200000DC6809C0883A910508F076C0853A9105E8
:1020100030F0A497D064CE01DF91CF91089504975A
:10202000D0F781E0219709F080E0C82F50E0D52F4C
:10203000F2CFC11580E4D80708F069C0C83ED105C9
:1020400030F4C03ED10538F7C0E0D0E0E4CFCE0197
:102050009A9581159F41F8F2F7CF811536E59307E0
:1020600030F5811545E5940708F068C0811554E501
:10207000950728F0D82FCC27C46FD06ACCCF86958F
:102080008695AE014370552720E2C115D34508F06F
:1020900046C0829FC001112421E030E002C0220F1F
:1020A000331F4A95E2F7822B932BEC01A9CF8115C0
:1020B0003AE5930780F4811549E5940708F048C094
:1020C00098558F3F910511F008F0BECFDC2FCC273B
:1020D000C06FD06AA0CF90568115904208F0B4CF5F
:1020E0008D2F8F710E946F1190E0982F882788277D
:1020F0009F718C2BEC012AC0C85AD0E0CC0FDD1F99
:10210000C256DF4F0990D881C02DD46484CFDF70D0
:10211000D06A81CFD82FCC27C16FD06A7CCF829F65
:10212000C001112421E030E002C0220F331F4A9584
:10213000E2F7822B932BEC01DA686DCF0E946F11CE
:10214000C82FD0E0DC2FCC27CC27DF71D06263CF43
:102150008F700E946F1134E0D695C7953A95E1F7DC
:10216000CF709C2FEC01D06956CF7630A8F4623145
:1021700098F4E62FF0E092E1799FE00DF11D112433
:102180009CE6899FE00DF11D1124EE0FFF1FEC5A14
:10219000FF4F85919491089580E090E008950E940A
:1021A000B5100E94CF0F0895803E9105B1F1C8F49B
:1021B0008133910509F479C048F48932910509F415
:1021C0006DC08A32910509F477C00895893391056D
:1021D000E1F082389105C9F08533910509F457C0C3
:1021E0000895843E9105B1F148F4823E910511F1C4
:1021F000833E910521F181EE90E00895863E9105A0
:10220000A1F1873E9105C1F108952091400223700C
:102210002223A1F080EE90E008952091400220FD5D
:1022200052C03091410230FF09C024FF4FC080E00E
:1022300090E008952091400222FDF7CF089520916B
:10224000400222FD46C03091410230FDE3CF24FF21
:10225000F5CFEDCF2091410221FFF0CF80914002D8
:1022600084FDE5CF87EE90E008952091400223FFA2
:10227000E5CF24FDDCCFF6CF2091400223FD2CC01A
:102280003091410231FFE3CF84EE90E0D7CF20912F
:10229000400225FFD3CF89E290E0089520914002CB
:1022A00025FFCCCF85E390E008952091400226FFE2
:1022B000C5CF8AE290E008952091400226FFBECF6C
:1022C00081E390E0089589E390E0089583EE90E043
:1022D000089582EE90E0089586EE90E00895909142
:1022E000400292FF06C0282F28712830F9F4877F1A
:1022F000846093FF06C0282F28712831F1F4877E6F
:1023000084612091410220FF06C0382F3871383097
:10231000D9F4877F816021FF06C0282F28712831DA
:10232000D1F4877E816194FD877E0895282F2471E2
:102330002430F9F68B7F8860DCCF282F247124317C
:1023400001F78B7E8861DDCF382F3171313019F77D
:102350008E7F8860E0CF282F2171213121F78E7E7A
:102360008861E1CF80E008950E942E0E08950E94BA
:10237000FA128FE39CE90197F1F700C000000E9478
:10238000FA1280E00E94081260FF04C00E94B4119B
:102390000E94A61608950E94B7110895A4E0B0E027
:1023A000E4EDF1E10C94EB190E94350E811102C0AD
:1023B0000E94E20E0E94400E80939A010E944A0EF3
:1023C00090934102809340020E94CB110E94450EDF
:1023D000282F30E040E050E0CA01B9010E942C08EB
:1023E00080912E0190912F01A0913001B091310187
:1023F000BC01CD010E9498082496E2E00C94071AD3
:1024000008950E940012089508950E9404120895EC
:10241000A4E0B0E0EEE0F2E10C94EB1994E0899FC7
:10242000F0011124E65AFD4F80819181A281B38190
:10243000BC01CD012496E2E00C94071A089580EACD
:102440008A95F1F7089500C008950E941F1208951B
:10245000F894E82FE295EF70F0E041A98F7021E049
:1024600030E0B90102C0660F771F8A95E2F7CB0111
:10247000962F9095942391AB92A9892B82AB789457
:1024800008950F931F93CF93DF93CEEDD0E0899102
:102490008F3F11F00E94281280E0C43ED807B9F7A0
:1024A000CCECD0E00EED10E089918F3F11F00E944E
:1024B00028120C171D07C1F7DF91CF911F910F91C3
:1024C00008958F929F92AF92BF92DF92EF92FF9208
:1024D0000F931F93CF93DF93EC01D62E062F10E0BE
:1024E000C80182529F4F7C01FC0120812F3F09F4DB
:1024F0005FC0F894E22FE295EF70F0E031A92F7001
:1025000081E090E001C0880F2A95EAF7932F982B7D
:1025100091AB92A98095892382AB78940E94231273
:10252000ECECF0E041E050E060E070E0812C912CB8
:10253000540181918F3F91F0A82FA295AF70A05DBB
:10254000B0E02C9130E08F7002C0359527958A95C8
:10255000E2F72170DB01CA01222321F080E090E044
:10256000A0E0B0E0882A992AAA2ABB2A440F551F66
:10257000661F771F80E0EE3DF807D9F6F7018081EE
:102580008F3F11F00E94281261E081149104A10490
:10259000B10409F460E08D2D0E942512000F111F77
:1025A000000F111FC00FD11F88829982AA82BB829F
:1025B000DF91CF911F910F91FF90EF90DF90BF902F
:1025C000AF909F908F9008950E94411288E1EAE5B4
:1025D000F2E0DF01982F1D929A95E9F7E2E4F2E02C
:1025E000DF011D928A95E9F786E00E9437130E9469
:1025F0004A030895A8E1B0E0E0E0F3E10C94E819A3
:10260000FE01319688E1DF011D928A95E9F710E01D
:10261000FE2E0F2F612F8F2D902F0E9461121F5FB2
:102620001630C1F748E150E06F2D702F82E492E040
:102630000E94121A11E0892B81F410E0212F46E04C
:102640006AE572E082E492E00E9438130E944D0332
:10265000812F6896E5E00C94041A88E1EF2DF02FA5
:10266000A2E4B2E001900D928A95E1F7E7CF0895D8
:10267000FF920F931F93CF93DF93F82E092F162FFE
:10268000D72FC42F222349F081E080939D010E941F
:102690004A1690939C0180939B0180919D01882311
:1026A000A1F080919B0190919C010E947316059767
:1026B00060F0EF2DF02FA12FBD2F80E090E0D0E053
:1026C0008C179D073CF010929D01CDB7DEB7E5E079
:1026D0000C94041A01911191219131910D931D9344
:1026E0002D933D930196ECCF0E94C9160E94210FB5
:1026F0000E94DA1608950E9431160E94C2160E94A6
:10270000070F0E9474130E94E8160E94170FFBCF58
:10271000CF93DF93EC01FB018281882309F4E1C0B0
:10272000C236FDE5DF0709F44CC090F5C631ECE593
:10273000DE07C0F4C230FCE5DF0708F43FC00E94AA
:102740004A0E9093410280934002FE01E350FC4503
:10275000809140028160E331F10528F5EE59F54E94
:102760000C94D5199E012B5F3C452930310530F57D
:102770000E944A0E9093410280934002FE01EC5F5A
:10278000FC45E830F10590F5EB58F54E0C94D51961
:10279000C63ADD4599F40E944A0E90934102809515
:1027A00080FB809580F98093400280914002909157
:1027B00041020E94580E0E94DC0780E0DF91CF9119
:1027C00008950E944A0E90934102809584FB809563
:1027D00084F9E9CF809140028260E5CF8091400288
:1027E0008460E1CF809140028860DDCF809141021A
:1027F000816080934102D9CF809141028260F9CFFC
:10280000809140028061CFCF809140028062CBCF27
:10281000809140028064C7CF0E94DC078091400213
:102820008068C1CF809140028C60BDCF8091410211
:102830008360DFCF809140028E7FB5CF80914002D0
:102840008D7FB1CF809140028B7FADCF80914002D0
:10285000877FA9CF809141028E7FCBCF80914102AB
:102860008D7FC7CF809140028F7E9DCF80914002A7
:102870008F7D99CF809140028F7B95CF0E94DC079E
:10288000809140028F778FCF80914002837F8BCFE2
:10289000809141028C7FADCF8091400282FB9927CD
:1028A00090F921E0922790FB82F990FB83F97BCF8E
:1028B00080914102982F909591708E7F892B90FB8B
:1028C00081F997CF0E94DC0790914002892F97FBF6
:1028D00087F9805868CF81E00E94E50E66CF80E0DE
:1028E000FBCF81E06BCFCF93DF93EB0186319C452B
:1028F00019F50E94590D9A819923A1F08A7A91E0E5
:10290000811101C090E090939E01882349F085E3F6
:102910000E94300D0E949C0D80E0DF91CF910895C0
:1029200089E2F6CF80919E01882321F085E30E9401
:10293000380DF0CF89E2FBCF81E0EFCF0F931F93EB
:10294000CF93DF93C42FD22FFC0182818823C9F05B
:102950004093A1010E944A169093A00180939F0189
:1029600080E28C0F883040F4C77081E001C0880F8E
:10297000CA95EAF70E942405DF91CF911F910F912C
:1029800008951091A10114133CC080919F01909172
:10299000A0010E947316883C910598F5C0E2CD0F06
:1029A0001D1741F180E2810F883040F4177081E0FB
:1029B00001C0880F1A95EAF70E942B05C83020F055
:1029C000802F0E941B05D8CF91E08D2F877001C00A
:1029D000990F8A95EAF7892F0E942405802F0E947B
:1029E0001B05D77081E001C0880FDA95EAF70E94D5
:1029F0002B05C2CF802F0E941B05C83008F0BCCF2A
:102A0000F0CF80E28C0F883008F0B6CFC77081E03D
:102A100001C0880FCA95EAF7EACF0F939C01CB015A
:102A2000243F4CE53407A1F190F4293DFCE53F0734
:102A300049F12A3D4CE53407E9F1283D3C45C1F018
:102A4000FC01828181111092A10181E019C0263F11
:102A5000FCE53F0719F1273F4CE5340729F1253FF5
:102A60003C4571F707E225EE44EE65EF7CE505C0D5
:102A700006E221EE41EE68ED7CE50E949E1480E0C6
:102A80000F91089507E225EE45EE69ED7CE5F5CF5F
:102A900006E221EE40EE64EF7CE5EFCF06E221EEA8
:102AA00042EE66EF7CE5E9CF07E225EE46EE67EF02
:102AB0007CE5E3CF08E221E045EE6AED7CE5DDCF81
:102AC0009093E5008093E40008959093A70180938C
:102AD000A6010895E091A601F091A701309729F091
:102AE0000190F081E02D0995089580E00895E0912E
:102AF000A601F091A701309721F00280F381E02D2B
:102B0000099508952091A4013091A501281739074E
:102B100071F09093A5018093A401E091A601F0913A
:102B2000A701309721F00680F781E02D09950895DF
:102B30002091A2013091A3012817390771F09093D9
:102B4000A3018093A201E091A601F091A701309723
:102B500021F00084F185E02D099508959C01AC01D8
:102B60004E5F5F4F285F3F4F80E0FA0190814F5FDB
:102B70005F4F91118F5F24173507B9F708959C01B6
:102B8000662351F0FC013296285F3F4F81918617F2
:102B900029F0E217F307D1F780E0089581E0089566
:102BA0009C01FC0132968FEF90E04191461751F065
:102BB0008F3F19F4411101C0892F9F5F9630A9F70B
:102BC0008F3F09F40895280F311D87FD3A95F901CB
:102BD000628308959C01FC013296285F3F4F8191EA
:102BE000861303C0DF0111971C92E217F307B9F7B0
:102BF00008950E94D01508950E94EA150895FC01D9
:102C0000329686E0DF011D928A95E9F708950895CE
:102C100008950E9408160895089508950E940716C1
:102C20000895A5E0B0E0E7E1F6E10C94EB190E940D
:102C30000C160E94FA120E940D161D828D810E94B0
:102C40000812672B682B692B51F48D818F5F8D8360
:102C50008630A1F780E02596E2E00C94071A81E027
:102C6000FACF84B7806884BF84B7806884BF089532
:102C70008091AA0181110E94BE0308950E94DC0781
:102C80000E94C30308958BE083BF8AEF8CBF82E06C
:102C900089BF08952FB7F8948091720290917302C2
:102CA000A0917402B09175022FBF0895A4E0B0E026
:102CB000ECE5F6E10C94EB198FB7F89420917202D1
:102CC00030917302409174025091750229833A83C6
:102CD0004B835C838FBF69817A818B819C81249631
:102CE000E2E00C94071A9C014FB7F89480917202AD
:102CF00090917302A0917402B09175024FBF821B34
:102D0000930B089578941F921FB61F9211248F93EE
:102D10009F93AF93BF938091720290917302A091A1
:102D20007402B09175020196A11DB11D80937202CB
:102D300090937302A0937402B0937502BF91AF9108
:102D40009F918F911F901FBE1F90189588E198E06A
:102D50000FB6F894A89581BD0FBE91BDA895F894C3
:102D6000D8E0CEE528E3299320E0299314BEFFCFD5
:102D7000089588E198E00FB6F894A89581BD0FBE3C
:102D800091BDFFCF0E944A169093A9018093A8019C
:102D900008950E94BA198B9A8FEFA895EFE9FFE08A
:102DA0003197F1F700C0000081508111F6CF8B9868
:102DB000789408950E94CF170E9465152FEF80E741
:102DC00092E0215080409040E1F700C0000008955B
:102DD00080919D02882311F110929D020E944A1653
:102DE0009093A9018093A8018091AA01882341F0C2
:102DF0001092AA010E943E168091AA01811112C070
:102E00000E94BD188091A302882329F0809181023D
:102E100084FD0E94CA0F0E94721708958091AA0132
:102E2000882301F10E9438160E9411168823A9F305
:102E3000F89491B3939A892F8C6081BB82B32CE074
:102E4000822782BB3FE748E381E031504040804029
:102E5000E1F700C0000082B3822782BB91BB939848
:102E6000789408958091A8019091A9010E94731609
:102E7000069708F4C1CF81E08093AA010E9438161A
:102E8000BBCF80913F02089508959B019091B001BE
:102E9000981307C04091AE015091AF0146175707F4
:102EA000A9F08093B0013093AF012093AE018093DD
:102EB000AB013093AD012093AC018091BA0284FF45
:102EC00005C063E08BEA91E00E94B8180895BC0148
:102ED00084E00E9445170895BC0183E00E944517D5
:102EE00008950895CF93DF93CAE0D0E080918102E6
:102EF00084FF1AC08091BC019091BD01981789F0A0
:102F000028E0829FC001112468E082549E4F0E94F5
:102F1000B3188091BC0190E001968F70992780933F
:102F2000BC01DF91CF9108950E94BD188FE99FE009
:102F30000197F1F700C0000021972097B9F6F1CF73
:102F4000CF93DF93D82FC92FA091BD01B0E0CD0161
:102F500001968F7099272091BC01281781F093E08A
:102F6000AA0FBB1F9A95E1F7A254BE4F98E0ED2F30
:102F7000FC2F01900D929A95E1F78093BD010E947C
:102F8000BD180E94721788E0ED2FFC2FA4EBB1E072
:102F900001900D928A95E1F7DF91CF91089582E635
:102FA00090E00895FC01808180768032F1F4818187
:102FB000813061F484819581892BB9F484EB91E0AF
:102FC00090939F0280939E0288E00895823041F49E
:102FD0008EE392E090939F0280939E0281E0089599
:102FE0008A3029F4838180933E0280E008958930FD
:102FF000E1F7828193818115924021F4848195814A
:10300000892B11F08FEF089581E08093B3018681C1
:1030100097819093B2018093B101F4CFFC0180912C
:10302000B1019091B201892B61F08091B30181309F
:1030300041F4908190933F021092B2011092B1013D
:1030400008958FEF08950895FC018381833059F12D
:1030500030F48130C1F08230F1F080E008958132A7
:1030600009F440C08232C9F784819581009709F440
:103070004AC0019791F78DE892E090939F02809368
:103080009E0282E308958FE392E090939F028093E3
:103090009E0282E1089584E092E090939F028093E3
:1030A0009E028BE308958281813061F0823091F03D
:1030B0008111D3CF89E892E090939F0280939E0282
:1030C00084E0089587E692E090939F0280939E02A9
:1030D00080E2089581E592E090939F0280939E02A2
:1030E00084E108958281882331F0813009F0B5CFE1
:1030F0008FE292E002C086E192E090939F0280937B
:103100009E0289E008958FEB92E090939F02809356
:103110009E0280E408951F93CF93DF93782F162F9C
:10312000EA01888184FF1CC0898128E8822789837D
:10313000FE013296272F392FCF01710FD9012F5F52
:103140003F4F4C914193472F421B1416BCF3612F04
:103150000E94B4011C5F1883DF91CF911F910895E5
:103160008AE58883E5CF41E852E00E948B180895F4
:103170004AEB52E00E948B180895CF93DF93609141
:10318000A002635067FD12C080919C02CCE0D0E0A9
:10319000C81BD109CC55DD4F80919B02803108F0CE
:1031A00059C0CE010E9423181092A00280916F0096
:1031B00084FF41C080916E008F3F09F43CC0C82F4E
:1031C000893008F0C8E0982F9C1B90936E00909176
:1031D000760228E89227909376028823F1F0809176
:1031E0009E0290919F0220919A0226FFB6C0FC0198
:1031F0002C2F47E752E03491DA013C934F5F5F4F49
:10320000319621502111F7CF01962FEF2C0F820F0D
:10321000911D90939F0280939E026C2F87E792E00E
:103220000E94B40184E08C0FC83019F09FEF909396
:103230006E0080936F0084E190B39C70911107C081
:1032400081508111F9CF1092A10210929902DF9161
:10325000CF9108958D3209F06DC0683009F0A4CF88
:1032600083EC809376028AE580936F0010929A0235
:1032700088818076882371F0CE010E94D2178F3F1B
:10328000B9F5988197FD8E8190E890939A0280938A
:103290006E008ACF2A8110927F02998191110AC013
:1032A000109280022FE732E082E030939F02209359
:1032B0009E021EC0953029F42093A1022FE732E030
:1032C000F4CF9630E9F49B81913039F4CE010E941D
:1032D000241890E490939A02D2CF9230B9F39330AD
:1032E000A9F3913299F3923289F390E490939A0280
:1032F0009F819111CCCF9E81981748F6892FC7CF17
:10330000983089F0993019F42093A302D7CF9A30DE
:1033100071F09B3099F69BE4909382029093BB02EC
:1033200090938E02CBCF23EA32E081E0BECF2FE72D
:1033300032E0FBCF80919A0287FF36CFCE010E9408
:103340000E188F3F21F48EE180936F002DCF8823DC
:1033500009F42ACF10926E0027CFDC012C2F47E70B
:1033600052E0FA013D9130834F5F5F4F21502111B0
:10337000F8CF4ACFCF93DF9385B7886085BF8BB7EF
:1033800080688BBFC1E8D2E08BE48983AAEBB2E00E
:1033900011968C931197EDE8F2E081838AE588839A
:1033A0008C938083DF91CF910895EE0FFF1F0590DE
:1033B000F491E02D09942F923F924F925F926F9279
:1033C0007F928F929F92AF92BF92CF92DF92EF92B5
:1033D000FF920F931F93CF93DF93CDB7DEB7CA1B36
:1033E000DB0B0FB6F894DEBF0FBECDBF09942A8861
:1033F000398848885F846E847D848C849B84AA8409
:10340000B984C884DF80EE80FD800C811B81AA8195
:10341000B981CE0FD11D0FB6F894DEBF0FBECDBF60
:10342000ED010895FB01DC0104C08D91019080192C
:1034300021F441505040C8F7881B990B0895E19939
:10344000FECF9FBB8EBBE09A99278DB30895A8E16C
:10345000B0E042E050E00C94521A262FE199FECFE2
:103460009FBB8EBBE09A01970DB2021631F02DBBC7
:103470000FB6F894E29AE19A0FBE08950396272FAB
:103480000E942E1A0E942D1A252F0E942E1A242FD8
:103490000C942E1A0196272F0E942E1A0C942D1A86
:1034A000DC01CB01FC01E199FECF06C0FFBBEEBB06
:1034B000E09A31960DB20D9241505040B8F7089500
:1034C000F894FFCFEA13EE13F21300140414081457
:1034D0000C1412141A141E14221426143214361446
:1034E0003A143E14441462144C14FC132A142E147F
:0A34F0001614481458146B146F14DE
:1034FA0070014117A01771176C1767174417FF5A05
:10350A00E200E900EA00B500B600B700CD00830189
:10351A00CC008A019201940121022302240225028D
:10352A00260227022A02B300B4006F007000E200EC
:10353A00E900EA00B500B600B700CD008301CC006F
:10354A008A01920194012102230224022502260201
:10355A0027022A02B300B4006F007000050100962A
:10356A0095949392919064636260610607973736E7
:04357A00353233347F
:00000001FF
